:020000040800F2
:10D00000FFFF002045F7000899F7000899F700088E
:10D0100099F7000899F7000899F700080000000048
:10D0200000000000000000000000000099F7000868
:10D0300099F700080000000099F7000899F7000828
:10D0400099F7000899F7000899F7000899F7000880
:10D0500099F7000899F7000899F7000899F7000870
:10D0600099F7000899F7000899F7000899F7000860
:10D0700099F7000899F7000899F7000899F7000850
:10D0800099F7000899F7000899F7000899F7000840
:10D0900099F7000899F7000899F7000899F7000830
:10D0A00099F7000899F7000899F7000899F7000820
:10D0B00099F70008000000000000000099F7000840
:10D0C00099F7000899F7000899F7000899F7000800
:10D0D00099F7000899F7000899F7000899F70008F0
:10D0E00099F7000899F70008000000000000000010
:10D0F0000000000000000000000000000000000030
:10D100000000000099F700080000000099F70008EF
:10D11000000000000000000099F7000895EE0008EC
:10D1200099F7000899F7000899F7000899F700089F
:10D1300099F7000800000000000000000000000057
:10D1400099F7000899F7000899F700080000000017
:10D1500099F7000899F7000899F7000899F700086F
:10D1600099F7000899F7000899F7000800000000F7
:10D1700099F7000899F7000800000000000000007F
:10D1800099F7000899F7000899F7000800000000D7
:10D8000010B5054C237833B9044B13B10448AFF37A
:10D8100000800123237010BD28200020000000009C
:10D8200010F8000808B5034B1BB103490348AFF3D8
:10D83000008008BD000000002C20002010F8000827
:10D84000034613F8012B002AFBD1181A0138704740
:10D8500081F0004102E000BF83F0004330B54FEAA1
:10D8600041044FEA430594EA050F08BF90EA020F0E
:10D870001FBF54EA000C55EA020C7FEA645C7FEAA1
:10D88000655C00F0E2804FEA5454D4EB5555B8BFC4
:10D890006D420CDD2C4480EA020281EA030382EA35
:10D8A000000083EA010180EA020281EA0303362DC7
:10D8B00088BF30BD11F0004F4FEA01314FF4801C9A
:10D8C0004CEA113102D0404261EB410113F0004FAC
:10D8D0004FEA03334CEA133302D0524263EB430363
:10D8E00094EA050F00F0A780A4F10104D5F1200E01
:10D8F0000DDB02FA0EFC22FA05F2801841F100015C
:10D9000003FA0EF2801843FA05F359410EE0A5F12F
:10D9100020050EF1200E012A03FA0EFC28BF4CF060
:10D92000020C43FA05F3C01851EBE37101F0004516
:10D9300007D54FF0000EDCF1000C7EEB00006EEB23
:10D940000101B1F5801F1BD3B1F5001F0CD34908AD
:10D950005FEA30004FEA3C0C04F101044FEA445204
:10D9600012F5800F80F09A80BCF1004F08BF5FEA8B
:10D97000500C50F1000041EB045141EA050130BD6B
:10D980005FEA4C0C404141EB010111F4801FA4F10E
:10D990000104E9D191F0000F04BF01460020B1FA63
:10D9A00081F308BF2033A3F10B03B3F120020CDA9B
:10D9B0000C3208DD02F1140CC2F10C0201FA0CF079
:10D9C00021FA02F10CE002F11402D8BFC2F1200CDE
:10D9D00001FA02F120FA0CFCDCBF41EA0C01904094
:10D9E000E41AA2BF01EB0451294330BD6FEA0404DD
:10D9F0001F3C1CDA0C340EDC04F11404C4F12002C8
:10DA000020FA04F001FA02F340EA030021FA04F3D9
:10DA100045EA030130BDC4F10C04C4F1200220FA30
:10DA200002F001FA04F340EA0300294630BD21FA6E
:10DA300004F0294630BD94F0000F83F4801306BF34
:10DA400081F480110134013D4EE77FEA645C18BF28
:10DA50007FEA655C29D094EA050F08BF90EA020FBF
:10DA600005D054EA000C04BF1946104630BD91EAB7
:10DA7000030F1EBF0021002030BD5FEA545C05D1BA
:10DA80004000494128BF41F0004130BD14F58004F9
:10DA90003CBF01F5801130BD01F0004545F0FE416D
:10DAA00041F470014FF0000030BD7FEA645C1ABFA2
:10DAB000194610467FEA655C1CBF0B46024650EAD9
:10DAC000013406BF52EA033591EA030F41F4002105
:10DAD00030BD00BF90F0000F04BF0021704730B58B
:10DAE0004FF4806404F132044FF000054FF0000160
:10DAF00050E700BF90F0000F04BF0021704730B521
:10DB00004FF4806404F1320410F0004548BF4042F5
:10DB10004FF000013EE700BF42004FEAE2014FEA4A
:10DB200031014FEA02701FBF12F07F4393F07F4F25
:10DB300081F06051704732F07F4208BF704793F028
:10DB40007F4F04BF41F40021704730B54FF460743B
:10DB500001F0004521F000411CE700BF50EA01023E
:10DB600008BF704730B54FF000050AE050EA0102E7
:10DB700008BF704730B511F0004502D5404261EB57
:10DB800041014FF4806404F132045FEA915C3FF498
:10DB9000D8AE4FF003025FEADC0C18BF03325FEA35
:10DBA000DC0C18BF033202EBDC02C2F1200300FAE6
:10DBB00003FC20FA02F001FA03FE40EA0E0021FA0B
:10DBC00002F11444BDE600BF70B54FF0FF0C4CF4F9
:10DBD000E06C1CEA11541DBF1CEA135594EA0C0FAB
:10DBE00095EA0C0F00F0DEF82C4481EA030621EAE6
:10DBF0004C5123EA4C5350EA013518BF52EA033521
:10DC000041F4801143F4801338D0A0FB02CE4FF0D2
:10DC10000005E1FB02E506F00042E0FB03E54FF002
:10DC20000006E1FB03569CF0000F18BF4EF0010EFA
:10DC3000A4F1FF04B6F5007F64F5407404D25FEAF6
:10DC40004E0E6D4146EB060642EAC62141EA5551A9
:10DC50004FEAC52040EA5E504FEACE2EB4F1FD0CEB
:10DC600088BFBCF5E06F1ED8BEF1004F08BF5FEA69
:10DC7000500E50F1000041EB045170BD06F000461B
:10DC800046EA010140EA020081EA0301B4EB5C04C8
:10DC9000C2BFD4EB0C0541EA045170BD41F48011C0
:10DCA0004FF0000E013C00F3AB8014F1360FDEBFE5
:10DCB000002001F0004170BDC4F10004203C35DAC1
:10DCC0000C341BDC04F11404C4F1200500FA05F344
:10DCD00020FA04F001FA05F240EA020001F00042E5
:10DCE00021F0004110EBD37021FA04F642EB06015B
:10DCF0005EEA430E08BF20EAD37070BDC4F10C0485
:10DD0000C4F1200500FA04F320FA05F001FA04F248
:10DD100040EA020001F0004110EBD37041F1000134
:10DD20005EEA430E08BF20EAD37070BDC4F120053F
:10DD300000FA05F24EEA020E20FA04F301FA05F2A7
:10DD400043EA020321FA04F001F0004121FA04F24F
:10DD500020EA020000EBD3705EEA430E08BF20EA1F
:10DD6000D37070BD94F0000F0FD101F00046400059
:10DD700041EB010111F4801F08BF013CF7D041EADB
:10DD8000060195F0000F18BF704703F000465200DF
:10DD900043EB030313F4801F08BF013DF7D043EAB0
:10DDA0000603704794EA0C0F0CEA135518BF95EA66
:10DDB0000C0F0CD050EA410618BF52EA4306D1D1ED
:10DDC00081EA030101F000414FF0000070BD50EA0C
:10DDD000410606BF1046194652EA430619D094EA96
:10DDE0000C0F02D150EA013613D195EA0C0F05D180
:10DDF00052EA03361CBF104619460AD181EA0301D4
:10DE000001F0004141F0FE4141F470014FF000008B
:10DE100070BD41F0FE4141F4780170BD70B54FF026
:10DE2000FF0C4CF4E06C1CEA11541DBF1CEA1355A6
:10DE300094EA0C0F95EA0C0F00F0A7F8A4EB050488
:10DE400081EA030E52EA03354FEA013100F088807F
:10DE50004FEA03334FF0805545EA131343EA126348
:10DE60004FEA022245EA111545EA10654FEA0026FD
:10DE70000EF000419D4208BF964244F1FD0404F5B6
:10DE8000407402D25B084FEA3202B61A65EB030512
:10DE90005B084FEA32024FF480104FF4002CB6EBCF
:10DEA000020E75EB030E22BFB61A754640EA0C004F
:10DEB0005B084FEA3202B6EB020E75EB030E22BF8F
:10DEC000B61A754640EA5C005B084FEA3202B6EBD0
:10DED000020E75EB030E22BFB61A754640EA9C008F
:10DEE0005B084FEA3202B6EB020E75EB030E22BF5F
:10DEF000B61A754640EADC0055EA060E18D04FEA1D
:10DF0000051545EA16754FEA06164FEAC30343EABC
:10DF100052734FEAC2025FEA1C1CC0D111F4801F89
:10DF20000BD141EA00014FF000004FF0004CB6E782
:10DF300011F4801F04BF01430020B4F1FD0C88BF21
:10DF4000BCF5E06F3FF6AFAEB5EB030C04BFB6EB2C
:10DF5000020C5FEA500C50F1000041EB045170BD1F
:10DF60000EF0004E4EEA113114EB5C04C2BFD4EB4C
:10DF70000C0541EA045170BD41F480114FF0000ED0
:10DF8000013C90E645EA060E8DE60CEA135594EA4C
:10DF90000C0F08BF95EA0C0F3FF43BAF94EA0C0F4F
:10DFA0000AD150EA01347FF434AF95EA0C0F7FF4C4
:10DFB00025AF104619462CE795EA0C0F06D152EA18
:10DFC00003353FF4FDAE1046194622E750EA4106FC
:10DFD00018BF52EA43067FF4C5AE50EA41047FF40D
:10DFE0000DAF52EA43057FF4EBAE12E74FF0FF3C72
:10DFF00006E000BF4FF0010C02E000BF4FF0010C43
:10E000004DF804CD4FEA410C7FEA6C5C4FEA430CBB
:10E0100018BF7FEA6C5C1BD001B050EA410C0CBF0A
:10E0200052EA430C91EA030F02BF90EA020F00206C
:10E03000704710F1000F91EA030F58BF994208BFD3
:10E0400090422CBFD8176FEAE37040F00100704790
:10E050004FEA410C7FEA6C5C02D150EA013C07D1E7
:10E060004FEA430C7FEA6C5CD6D152EA033CD3D032
:10E070005DF8040B704700BF8446104662468C462C
:10E080001946634600E000BF01B5FFF7B7FF00285F
:10E0900048BF10F1000F01BD4DF808EDFFF7F4FF88
:10E0A0000CBF012000205DF808FB00BF4DF808ED13
:10E0B000FFF7EAFF34BF012000205DF808FB00BF36
:10E0C0004DF808EDFFF7E0FF94BF012000205DF858
:10E0D00008FB00BF4DF808EDFFF7CEFF94BF01200D
:10E0E00000205DF808FB00BF4DF808EDFFF7C4FF06
:10E0F00034BF012000205DF808FB00BF4A0011D2A8
:10E1000012F5001211D20DD56FF47873B3EB625291
:10E110000ED44FEAC12343F0004343EA505323FA9D
:10E1200002F070474FF00000704750EA013002D112
:10E130004FF0FF3070474FF00000704753B94AB9B5
:10E14000002908BF00281CBF4FF0FF314FF0FF30FF
:10E1500000F094B9ADF1080C6DE904CE00F028F898
:10E16000DDF804E0DDE9022304B07047D0B50022F9
:10E170000D4B06460F46FFF727FDFFF7BFFF04468E
:10E18000FFF7A8FC0022094BFFF71EFD02460B46D5
:10E1900030463946FFF760FBFFF7B0FF0022234609
:10E1A00010431946D0BD00BF0000F03D0000F04113
:10E1B0002DE9F047089E04468846002B4BD18A4241
:10E1C000154667D9B2FA82F24AB1C2F1200701FAC4
:10E1D00002F320FA07F7954047EA030894404FEA14
:10E1E000154E230CB8FBFEF71FFA85FC0EFB1788B3
:10E1F00043EA084307FB0CF1994209D9EB1807F1F0
:10E20000FF3080F01B81994240F21881023F2B447D
:10E210005B1AA4B2B3FBFEF00EFB103344EA0344D6
:10E2200000FB0CFCA44509D92C1900F1FF3380F048
:10E230000781A44540F2048102382C4440EA07409B
:10E24000A4EB0C0400271EB1D4400023C6E9004310
:10E250003946BDE8F0878B4209D9002E00F0EB80EB
:10E260000027C6E9000138463946BDE8F087B3FA11
:10E2700083F7002F47D18B4202D3824200F2FA800B
:10E28000841A61EB030301209846002EE0D0C6E912
:10E290000048DDE702B9FFDEB2FA82F2002A40F060
:10E2A0008F80491B4FEA154E1FFA85F80127B1FBF5
:10E2B000FEFC230C0EFB1C1143EA014308FB0CF18E
:10E2C000994207D9EB180CF1FF3002D2994200F2C3
:10E2D000CD808446591AA3B2B1FBFEF00EFB101498
:10E2E00043EA044408FB00F8A04507D92C1900F1C3
:10E2F000FF3302D2A04500F2B6801846A4EB080412
:10E3000040EA0C409FE7C7F1200CBB4022FA0CFE0C
:10E310004EEA030E01FA07F420FA0CF521FA0CF389
:10E320004FEA1E482543B3FBF8F92C0C08FB1933C0
:10E330001FFA8EFA44EA034309FB0AF49C4202FAEC
:10E3400007F200FA07F10BD91EEB030309F1FF30C6
:10E3500080F087809C4240F28480A9F102097344D6
:10E360001B1BADB2B3FBF8F008FB103345EA0344C6
:10E3700000FB0AFAA24508D91EEB040400F1FF33A2
:10E380006BD2A24569D90238744440EA0940A0FB27
:10E390000289A4EB0A044C45C2464B4654D351D0E3
:10E3A000002E69D0B1EB0A0564EB030404FA0CFCFF
:10E3B000FD40FC404CEA0505C6E90054002747E74C
:10E3C000C2F1200320FA03F7954001FA02F021FA86
:10E3D00003F34FEA154E3843010CB3FBFEF71FFA67
:10E3E00085F80EFB173341EA034107FB08F38B4224
:10E3F00004FA02F407D9691807F1FF3C2FD28B42C7
:10E400002DD9023F2944CB1A81B2B3FBFEF00EFB9B
:10E41000103341EA034100FB08F38B4207D9691826
:10E4200000F1FF3C17D28B4215D902382944C91A92
:10E4300040EA07473BE73746304609E70746E7E645
:10E440001846FBE64145ABD2B8EB020A69EB0E0277
:10E4500001381346A4E76046E9E7184695E76746A2
:10E46000D1E781467CE702382C4447E7ACF1020C47
:10E470002B442FE7384608E73746E9E6704700BFE8
:10E4800001380F2800F2A580DFE800F00824A3A3DC
:10E49000A34059A3A3A3A3A3A3A3728B4D4A136EB6
:10E4A00043F4006313664C4B1A6822F070021A6042
:10E4B000013989B2D962494A12684949A1FB02125D
:10E4C0009209013A9A6201225A611A6842F00102E5
:10E4D0001A6070473F4A936D43F0010393654FF014
:10E4E00080431A6822F070021A600139D9623B4AEF
:10E4F00012683B49A1FB02129209013A9A62012279
:10E500005A611A6842F001021A607047314A936DED
:10E5100043F010039365013989B2A2F50032D1624C
:10E520002E4B1B682E49A1FB03139B09013B9362F1
:10E5300001235361136843F0010313607047254AB8
:10E54000936D43F020039365013989B2A2F5FE3241
:10E55000D162224B1B682249A1FB03139B09013B9B
:10E56000936201235361136843F001031360704702
:10E57000184A136E43F480331366013989B2A2F549
:10E580005042D162154B1B681549A1FB03139B092F
:10E59000013B936201235361136843F0010313604D
:10E5A00070470C4A136E43F400331366013989B285
:10E5B000A2F54C42D162094B1B680949A1FB031328
:10E5C0009B09013B936201235361136843F00103EC
:10E5D0001360704700100240002C01400020002012
:10E5E000D34D621001380F2845D8DFE800F008123B
:10E5F0004444441D2744444444444444313B1E4A5B
:10E60000D36843F00103D3601C4B4FF000721A60D3
:10E6100070474FF08042D36843F00103D360174B3B
:10E620004FF080521A607047154AD36843F00103D7
:10E63000D360124B4FF480025A607047114AD3687E
:10E6400043F00103D3600D4B4FF400025A60704752
:10E650000D4AD36843F00103D360084B4FF080723A
:10E660001A607047094AD36843F00103D360034B33
:10E670004FF000721A607047002C014000E100E08A
:10E6800000100040001400400040014000440140E0
:10E6900001280BD0022810D0062816D007281BD03E
:10E6A0000F2820D0102825D0002070471A4B1B6956
:10E6B00013F0010F2ED1002070474FF080431B69EB
:10E6C00013F0010F1DD100207047144B1B6913F08C
:10E6D000010F18D100207047114B1B6913F0010F77
:10E6E00013D1002070470F4B1B6913F0010F0ED19F
:10E6F000002070470C4B1B6913F0010F09D100205B
:10E7000070470120704701207047012070470120A9
:10E7100070470120704700BF002C014000100040EE
:10E7200000140040004001400044014001380F281F
:10E730002DD8DFE800F0080E2C2C2C151B2C2C2CCF
:10E740002C2C2C2C2127124A136923F0010313616E
:10E7500070474FF08042136923F001031361704743
:10E760000C4A136923F00103136170470A4A1369C5
:10E7700023F0010313617047084A136923F0010372
:10E7800013617047064A136923F001031361704750
:10E79000002C0140001000400014004000400140E7
:10E7A0000044014082B0234B9B6D13F0805F15D075
:10E7B000214B1B6803F4C063B3F5007F21D0002117
:10E7C0001E4A136823F007030B431360136803F01A
:10E7D00007038B421FD0002002B07047154A936D8B
:10E7E00043F080539365936D03F080530193019B35
:10E7F000114B1B6803F4C063916D21F0805191654A
:10E80000DAE7802803D9A02803D90221D8E700211C
:10E81000D6E70121D4E7A2F58052136843F008033C
:10E820001360136823F0F00343F0B003136001207A
:10E83000D2E700BF001002400070004000200240FC
:10E8400010B5114CD4F8883043F47003C4F8883004
:10E850000E4B1A6842F001021A60002199601A6892
:10E8600022F0A85222F410221A604FF48052DA608B
:10E870001A6822F480221A609961B020FFF792FF93
:10E880004FF00063A36010BD00ED00E000100240F7
:10E8900082B00023019303E000BF019B0133019389
:10E8A0004FF4FA5303FB00F3019A9342F4D802B0F9
:10E8B000704708B5012140F2071000F015FA012158
:10E8C0004FF4847000F010FA08BD08B5002140F242
:10E8D000071000F009FA00214FF4847000F004FAE8
:10E8E00008BD000038B572B600F05CFA504B0E223D
:10E8F0009A709C78E4B20122114640F2091000F0AF
:10E9000019FA0122114640F2071000F013FA012211
:10E9100011464FF4847000F00DFA14210720FFF720
:10E92000AFFD0720FFF75EFE62B6424D284600F0BD
:10E93000F5FE414800F0F2FE404800F0EFFE40488E
:10E9400000F0ECFE3F4800F0E9FE3F4800F0E6FE34
:10E950003E4800F0E3FE3E4800F0E0FE3D4800F097
:10E96000DDFE284600F0DAFE3B4800F0D7FE012528
:10E970001BE000214FF4847000F0B6F92C4B9B781B
:10E98000DBB2032B04D92A4B9B78DBB2072B35D99A
:10E99000274B9B7823B1264B9B78DBB2032B36D9D0
:10E9A000234B99782D4800F0B9FE214B9B78DBB2C0
:10E9B000A342FAD01E4B9C78E4B2012DD9D0022D8F
:10E9C000EED1002140F2071000F08EF9184B9B7831
:10E9D000002BE5D0164B9B78DBB2062BE0D83C2011
:10E9E000FFF756FF012140F2071000F07DF9104BB0
:10E9F0009B78DBB2012BD3D10125D1E73C20FFF777
:10EA000047FF01214FF4847000F06EF9C8E7FFF76B
:10EA10005CFF3C20FFF73CFFFFF74BFF044B9B786C
:10EA2000DBB2012BBCD1FFF744FF0225B8E700BFE2
:10EA30004C20002028F8000860F800089CF8000826
:10EA4000ACF80008E0F800081CF9000858F90008C4
:10EA50009CF90008DCF90008FCF9000824FA000819
:10EA6000124B1B6913F4803FFAD1104B5A6922F004
:10EA700001025A615A6942F002025A615A6922F44B
:10EA80007E725A615A6942EAC00058615A6942F47A
:10EA900080325A61054B1B6913F4803FFAD1034A57
:10EAA000536923F0020353610020704700200240A5
:10EAB00008B500F099FE08BD00238B4206D2C202C1
:10EAC000D25CFF2A04D101339BB2F6E701207047E4
:10EAD0000020704710B40C4B1B6813F4806F04D0F7
:10EAE000094C236823F480632360074B5C6944F07E
:10EAF00001045C61016042605A6922F001025A61BE
:10EB000000205DF8044B7047002002402DE9F041E1
:10EB100082B006460C46154610F0070740F09D806F
:10EB200088464B1E16D4DA100132D200D2B2E3B2BC
:10EB3000D21AD2B22746C2F10800A1196844FFF7E1
:10EB4000B7FF664B1B6913F4803FFAD1082C35D907
:10EB5000002451E00733E6E7A85C02A9194401F854
:10EB6000080C0133DBB201329742F5D89DF8003032
:10EB70009DF8011043EA01239DF8021043EA014386
:10EB80009DF803109DF804209DF8050042EA00223C
:10EB90009DF8060042EA00429DF8070042EA006242
:10EBA00043EA01613046FFF795FF4C4B1B6913F4B4
:10EBB000803FFAD1002002B0BDE8F08100231A4660
:10EBC000D2E7295D2B195A7841EA02219A7841EA65
:10EBD0000241D8781A7993F805C042EA0C2293F8DA
:10EBE00006C042EA0C42DB7942EA036241EA006174
:10EBF000A019FFF76FFF0834A8F10803A342E0D87B
:10EC00002246002307E0A85C02A9194401F8080C79
:10EC10000133DBB201329742F5D89DF800309DF800
:10EC2000011043EA01239DF8021043EA01439DF8D5
:10EC300003109DF804209DF8050042EA00229DF88B
:10EC4000060042EA00429DF8070042EA006243EAF9
:10EC50000161A019FFF73EFFA7E7B846C61B3A4679
:10EC600031466846FFF724FF002308E0E95C02AA6A
:10EC7000424402F8081C0133DBB208F10108B8F184
:10EC8000070FF3D99DF800309DF8011043EA0123E6
:10EC90009DF8021043EA01439DF803109DF80420FB
:10ECA0009DF8050042EA00229DF8060042EA004273
:10ECB0009DF8070042EA006243EA01613046FFF72F
:10ECC00009FF391989B2C7F1080208392A4489B203
:10ECD00006F10800FFF71AFF67E700BF00200240B7
:10ECE000030A0B701070704710B582B00C460DF11E
:10ECF00006020DF10701FFF7F3FF9DF80730072B20
:10ED00000BD00B4A52F82320012C0BD09DF8061093
:10ED100001238B40936202B010BD023B044A52F8BB
:10ED20002320F1E79DF8061001238B409361F2E761
:10ED300004200020F0B583B005460C4616460DF1C0
:10ED400006020DF10701FFF7CBFF9DF80710072919
:10ED500015D0124B53F82100114FFB6C01228A4051
:10ED60001343FB6401689DF806305B0003229A4060
:10ED700021EA0202012C07D0026003B0F0BD8B1E15
:10ED8000064A52F82300E7E7012101FA03F31A4388
:10ED9000026031462846FFF7A7FFEEE70420002077
:10EDA000001002407047000000B5ADF6040D1821B8
:10EDB0007F20FFF781FE20BB4FF4006214496846B4
:10EDC000FFF776FE379A134B1B689A420BD01A2036
:10EDD000FFF746FE0F4B1B6837936A464FF40061FE
:10EDE0000B48FFF793FE0C4B094A9A600B4BA2F5B8
:10EDF000C0421A600A4800F091FC0DF6040D5DF85F
:10EE000004FB084A18210848FFF780FED4E700BF3A
:10EE100000D00008DC00000800ED00E050200020D9
:10EE200054FA000838FA000800F803080138C0B2A4
:10EE3000022801D8012070470020704738B50446E9
:10EE40000D46FFF7F3FF0346A8B100224FF6BA3391
:10EE50009A420BD8631E0A4951F82330D96911F040
:10EE6000800F01D10132F1E7ADB21D854FF6BA3303
:10EE70009A4202D80123184638BD0023FBE700BFA1
:10EE80001C2000208378013BDBB283700BB90D237B
:10EE90008370704708B572B60720FFF7F9FB48B1D9
:10EEA000094A13780133DBB21370312B04D80720E1
:10EEB000FFF73CFC62B608BD134600221A700348F7
:10EEC000FFF7E0FFF3E700BF442000204C200020C4
:10EED00010B50C461368012B05D0022B07D0236810
:10EEE0000133236010BD5368C0B29847F7E79368B9
:10EEF0001870936801339360F1E730B4441C002527
:10EF00000570B2B1096809B1002009E030234370EF
:10EF1000012024E0C1F1300121700130013411469B
:10EF2000E9B191FBF3F203FB12110029F2DB30315E
:10EF3000F2E715460A6842B93023437001200EE01B
:10EF400037322270013501340A463AB1B2FBF3F18F
:10EF500001FB1322092AF3D83032F2E7284630BCED
:10EF60007047F8B504460D4617461E4605E0324682
:10EF700039463020FFF7ACFF0134AC42F7DBF8BD77
:10EF8000F8B504460D4617461E4605E0324639469A
:10EF90002020FFF79DFF0134AC42F7DBF8BD08B538
:10EFA00001460320FFF74AFF08BD000000000000F3
:10EFB0002DE9F04798B00446884616460021139183
:10EFC00014911591169117914C22684600F017FC88
:10EFD000D4E9004520462946FFF790F88146FEF720
:10EFE00079FD02460B4620462946FEF735FC0446CD
:10EFF0000D4686B955A3D3E90023FEF7E5FDFFF7DB
:10F00000B5F806460F464FF0000A16E000224C4BBA
:10F01000FEF7DAFD3E46771E002EF7D1FFF7A6F881
:10F0200006460F46EFE70022454B20462946FEF7ED
:10F03000CBFD04460D460AF1010A0022414B204651
:10F040002946FFF733F80028EDD10AF1FF35B9F171
:10F05000000F23D1302388F800304FF0010909F167
:10F06000010A2E2308F8093056EA070326D00024A7
:10F0700040E0354BA3FB0913DB08184603EB830381
:10F080005900A9EB010318A901EB820141F8143CD6
:10F0900081460132B9F1000FEBD10CE00022F9E713
:10F0A000013A18AB03EB820353F8143C303308F8F1
:10F0B000093009F10109002AF2D1D0E7302308F81C
:10F0C0000A3009F1020A31E00A22002330463946AB
:10F0D000FFF734F804F1010918AB03EB840444F89A
:10F0E000602C0A22002330463946FFF727F80646EF
:10F0F0000F464C4656EA0703E6D107E018AB03EB90
:10F100008403002243F8602C013D0134002DF5D129
:10F110000AE0013C18AB03EB840353F8603C303346
:10F1200008F80A300AF1010A002CF2D1002308F88D
:10F130000A30504618B0BDE8F08700BFAFF300803A
:10F14000000024400000F03FCDCCCCCC00A0D885FE
:10F15000573476432DE9F04F97B001900C46914615
:10F16000212200210DA800F04AFB30238DF8343015
:10F1700000230C93012202929B460BE0019D2A463C
:10F180000CA90D20FFF7A4FE2A460CA90A20FFF7C0
:10F190009FFE01342078002800F0BB82252841D052
:10F1A0000A28EBD0019A0CA9FFF792FEF1E746F08E
:10F1B0000106144600293AD1621C6378203B102BCB
:10F1C00033D801A050F823F013F200082BF2000806
:10F1D0002BF200081FF200082BF200082BF20008A7
:10F1E0002BF200082BF200082BF200082BF200088B
:10F1F0002BF200080DF200082BF20008AFF1000816
:10F200002BF200082BF2000819F2000846F0020663
:10F21000CFE746F00406CCE746F00806C9E746F01B
:10F220001006C6E700263146C4E70121C2E70025E3
:10F230002F4600E00F4667B9601C6378A3F13002E7
:10F24000092AF7D805EB85056A00303BD518044636
:10F25000F1E7621C63782E2B36D04FF00008CDF812
:10F260000880631C6278682A04D06C2A42D04C2A39
:10F2700043D023465C1C5878A0F15803202B00F2A1
:10F280004182DFE813F028013F023F023F023F02C4
:10F290003F023F023F023F023F02AB01F8013D0047
:10F2A0003F029A003F023F023D003F023F023F0201
:10F2B0003F0238028D01BA013F023F0202023F02C3
:10F2C000C9013F023F0228014FF00008404600E01C
:10F2D000384668B9541C5378A3F130010929F7D88E
:10F2E00008EB88084FEA480202EB01082246F0E7E3
:10F2F0001446B6E74BF0010BBCE74BF0020BB9E745
:10F3000009F10407D9F8003016A941F82C3D0A2369
:10F3100001220DA8FFF7F1FD82460DAB03EB0008BB
:10F320000B9B002B07DB16F0020F17D000F1010A30
:10F330004FF02B0903E000F1010A4FF02D0916F000
:10F34000080F19D0B9F1000F10D1019B0CAA294662
:10F350005046FFF706FEAA46B9467AE116F00409C0
:10F36000EDD000F1010A4FF02009E8E7019A0CA95D
:10F370004846FFF7ADFDE8E716F0010F04D0B9F1FC
:10F38000000F13D1B94664E1019B0CAA29465046EF
:10F39000FFF7F6FDB9F1000F01D1B94659E1019A25
:10F3A0000CA94846FFF794FDB94652E1019A0CA911
:10F3B0004846FFF78DFDB9464BE1BBF1000F28D160
:10F3C000D9F800300593D9F804301B0E002263F3FE
:10F3D0001F620492DDE90423CDE9082309F108093D
:10F3E000029B0BBBBBF1000F25D106220DA908A87B
:10F3F000FFF7DEFD804600220023DDE90801FEF76D
:10F4000055FEF8B916F0020F2CD008F101082B2791
:10F410001BE00BF1FF33012BE2D8D9E90123CDE941
:10F42000082309F10C09DBE742460DA908A8FFF7FC
:10F43000BFFD8046DFE706220DA908A8FFF7B8FD4B
:10F440008046D8E708F101082D2716F0080F16D0DE
:10F450007FB9019B0CAA29464046FFF782FDA846CA
:10F460000DAF2AE016F00407EFD008F101082027BD
:10F47000EBE7019A0CA93846FFF72AFDE9E716F0F9
:10F48000010F07D0002FEBD0019A0CA93846FFF7E7
:10F490001FFDE5E7019B0CAA29464046FFF770FDDA
:10F4A000002FDDD0019A0CA93846FFF711FDD7E7F0
:10F4B0000137019A0CA9FFF70BFD38780028F7D126
:10F4C00016F0010F3FF465AE019B0CAA2946404699
:10F4D000FFF756FD5DE609F104030393D9F8003008
:10F4E00016A941F83C3D102300220DA8FFF705FDA9
:10F4F00082460DAB03EB000816F0080921D016F088
:10F50000100910D1019B0CAA29465046FFF729FD8E
:10F51000AA4616F0100F00F0AB80B9F1000F2FD003
:10F52000DDF80C9095E0DDF804904A460CA93020F7
:10F53000FFF7CEFC4A460CA97820FFF7C9FCB94674
:10F54000E0E716F0010FE4D116F0100901D000F148
:10F55000020A019B0CAA29465046FFF711FDB9F19A
:10F56000000FD6D0DDF804904A460CA93020FFF7F2
:10F57000AFFC4A460CA97820FFF7AAFCB946C8E7B9
:10F58000019F3A460CA93020FFF7A2FC3A460CA98D
:10F590007820FFF79DFC0AF1020ADDF80C9058E094
:10F5A00009F10407D9F8003016A941F83C3D0823B9
:10F5B00000220DA8FFF7A1FC8246B9460DAB03EB74
:10F5C0000A0816F0080F36D116F0010F41D1019B41
:10F5D0000CAA29465046FFF7D3FC3AE009F104078C
:10F5E000D9F8003016A941F83C3D022300220DA8AD
:10F5F000FFF783FC8246B946E0E709F10407D9F832
:10F60000003016A941F83C3D102300220DA8FFF759
:10F6100074FC8246B946D1E709F10407D9F80030F5
:10F6200016A941F83C3D0A2300220DA8FFF765FC0E
:10F630008246B946C2E7019B0CAA29465046FFF70D
:10F6400090FCAA4605E008F1FF38019A0CA9FFF7E3
:10F650003FFC98F800000028F5D116F0010F3FF4A8
:10F6600098AD019B0CAA29465046FFF789FC90E50E
:10F67000DDF80C90EDE709F10405019A0CA999F861
:10F680000000FFF725FCA94683E509F1040AD9F833
:10F690000070002F3BD03846FEF7D2F8814616F0B6
:10F6A00001060FD0B8F1000F17D03878C0B1B8F10B
:10F6B000000FFADD08F1FF380137019A0CA9FFF7B6
:10F6C00007FCF2E7019B0CAA2946FFF759FCE9E782
:10F6D0000137019A0CA9FFF7FBFB38780028F7D116
:10F6E0000EB9D14655E5019B0CAA29464846FFF7BD
:10F6F00047FCD1464DE5D9F800300C9A1A6009F163
:10F70000040946E5019A0CA9FFF7E2FB41E5D14661
:10F710003FE50C9817B0BDE8F08F00BF0FB400B5FF
:10F7200085B001230193064B029306AA52F8041BED
:10F7300001A8FFF70FFD05B05DF804EB04B07047BA
:10F740009FEF0008DFF838D0002103E00D4B5B5835
:10F75000435004310C480D4B42189A42F6D30C4AE0
:10F7600002E0002342F8043B0A4B9A42F9D3FFF728
:10F7700067F8FFF719FB00F013F8FFF7B3F8FEE79F
:10F78000FFFF002098FA0008002000202820002019
:10F79000282000205828002000B500BF00BD000030
:10F7A00070B50D4E0D4CA41BA4100025A54209D127
:10F7B0000B4E0C4C00F02CF8A41BA4100025A54205
:10F7C00005D170BD56F8253098470135EEE756F85B
:10F7D000253098470135F2E788FA000888FA0008D2
:10F7E00088FA00088CFA000810B5431E0A449142BA
:10F7F00000D110BD11F8014B03F8014FF7E70244A7
:10F800000346934200D1704703F8011BF9E700005B
:10F81000F8B500BFF8BC08BC9E467047F8B500BFFD
:08F82000F8BC08BC9E467047CD
:10F828002D2D2D2D2D2D2D2D2D2D2D2D2D2D2D2D00
:10F838002D2D2D2D2D2D2D2D2D2D2D2D2D2D2D2DF0
:10F848002D2D2D2D2D2D2D2D2D2D2D2D2D2D2D2DE0
:10F858002D2D2D2D2D2D0A00BDF0BAF9C2ABCCE10E
:10F86800CABEA3BA2020202020202020202020202B
:10F878002020202020202020202020202020202080
:10F888002020202020202020202020202020200A86
:10F898000000000020A3A831A3A9C0B6B5C6C9C1FD
:10F8A800CBB80A0020A3A832A3A9C3BF32306D7316
:10F8B800D6D0B6CFB4A5B7A254696D6572B6A8CA3A
:10F8C800B1C6F7D6D0B6CFB4A6C0EDB3CCD0F2D27D
:10F8D800BBB4CEA1A3200A0020A3A833A3A9BDF8D6
:10F8E800C8EB54696D6572B6A8CAB1C6F7D6D0B66A
:10F8F800CFB4A6C0EDB3CCD0F2BAF3A3ACBEB2CCB1
:10F90800ACB1E4C1BF32306D73B5A5D4AA2B31A315
:10F91800AC200A0020A3A834A3A9B4EFB5BDD2BB7C
:10F92800C3EBCAB1A3ACB5F7D3C3C3EB2B31A3ACBC
:10F93800B3CCD0F2A3ACBCC6CBE3A1B0CAB1A1A2F0
:10F94800B7D6A1A2C3EBA1B1A1A3200A0000000071
:10F9580020A3A835A3A9CAB9D3C3C8ABBED6B1E4FE
:10F96800C1BFD7D6BDDAD0CDCAFDD7E96754696D16
:10F97800655B335DA3ACB7D6B1F0B4E6B4A2A1B071
:10F98800CAB1A1A2B7D6A1A2C3EBA1B1A1A3200A73
:10F998000000000020A3A836A3A9BFC9CDA8B9FDBF
:10F9A800CAB1BCE4B2E2CAD4B3CCD0F243233230F9
:10F9B8003139B2E2CAD43330C3EBB5C4CAB1BCE4FE
:10F9C800BCE4B8F4C0B4D0A3D7BC54696D65722048
:10F9D8000A00000020A3A837A3A9D7A2D2E2C6E450
:10F9E800D6D0BEB2CCACB1E4C1BFB5C4CAB9D3C3DA
:10F9F800200A00002D2D2D2D2D2D2D2D2DBDBBCDFB
:10FA0800A8D0C5BAC5B5C6B5B9BCC6CAB12D2D2DC5
:10FA18002D2D2D2D2D2D200A00000000CAA3D3E086
:10FA2800CAB1BCE4A3BA09256420C3EB0A000000EC
:10FA3800303132333435363738394142434445461C
:10FA48003230323030373136000000002020A1BE7D
:10FA580055736572CCE1CABEA1BFA3BABDABBDF8F0
:10FA6800C8EB55736572B5C46D61696E2829D6B443
:08FA7800D0D02E2E2E0D0A0045
:08FA800030E7FF7F01000000E8
:08FA880025D800080000000071
:08FA900001D80008000000008D
:10FA9800006CDC0200000048000400480008004830
:10FAA800000C004800100048001C004800380140C5
:08FAB80000440040004800403A
:040000050800D80017
:00000001FF
